:020000041000EA
:4000000000400208230100100D00000085010010000000000000000000000000000000000000000000000000000000008101001000000000000000008101001081010010E9
:400040008101001081010010810100108101001081010010810100108101001081010010810100108101001081010010810100108101001081010010810100108101001060
:400080008101001081010010810100108101001081010010810100108101001081010010810100108101001081010010810100108101001081010010810100108101001020
:4000C00010B5064C2378002B07D1054B002B02D0044800E000BF0123237010BD3C0600080000000000270010084B10B5002B03D00749084800E000BF07480368002B00D103
:4001000010BD064B002BFBD09847F9E7000000004006000800270010E8000008000000007047FFF7FDFF72B60F4C104DAC4209DA21686268A368043B02DBC858D050FAE782
:400140000C34F3E70A490B4A0020521A02DD043A8850FCDC084809490860BFF34F8F00F005F900F01DF8FEE7042700101C2700103C060008140800080000000808ED00E019
:40018000FEE7FEE700B504207146084202D0EFF3098001E0EFF30880043001F023FCFEE710B562B6014800F067F9FEE70000081010B5002001F01CFA10BDC04670B56249E8
:4001C000E0239B00CB580F2213401A00D0329200525807210A40032A05D0042A06D0002A12D15A4814E05A4A106811E01A00C0329200554952581F210A40112A06D0132A7C
:4002000004D0FA20C00103E0524801E080200002002B36D14C4BB222D2009A5801211140B125ED005A59120F032422405B591B0F1C4207D0444C63591B0F03242340012BDC
:4002400002D102E0012300E00023002B01D0002901D1032A4BD13C4BB022D2009D58AD03AD0B3D495958C904C90C9C58240E01231C40013401F02CFF6843210001F028FF26
:4002800035E0012B33D1304BC822D2009A5801251540C024E4001A59120F03210A401B591B0F194207D028490B591B0F03210B40012B02D102E0012300E00023002B01D049
:4002C000002D01D1032A12D11F4DC022D200AB587F210B40A958090A1F263140AC58240C3440584301F0F4FE210001F0F1FEE0239B00154AD3581B0903221340D840144CB4
:400300006060164B1D692D0AFC32154001351969090E013101F0DCFEA060290001F0D8FE0500E06020610E4BC0180E4901F0D0FE20750D4BE818FA21890001F0C9FEA06149
:40034000C003E06170BDC0460000264000127A00C000000800366E0184050000000021403F420F0040420F00E703000010B5284801F0A8FE274CB022D200A3585B005B0856
:40038000A350E0218900635830208343635080235B04A350204A214BE250A02292010433E250FF221E4BE25001F07AFEC0225200A35801218B43A35000F098FAFFF7FEFED6
:4003C000B0235B055B78002B04D0B0235B055B78DBB200E02123212B03D1124B0022DA605A60114C22008021042000F0A7FE2000103000F03BFF0D4B1A685123D35C002BA3
:4004000002D00B4800F0A8FF00F0D6FB10BDC046482600100000264001000200840500008C050000E00023405806000810080008482200108023024AD358032018407047DC
:400440000000214010B501F060FB084980228C58074B2340074C23438B508823034AD358DB06FAD501F055FB10BDC04600002140FCFF00000100FA0570B50500830504D021
:40048000E821FF310F4801F07FFA01F03EFB0400FFF7D0FF032801D1FFF7D4FF0A4AB0239B00D55080215058084B03400848034353508823044AD358DB06FAD5200001F0A5
:4004C00028FB70BD7C22001000002140FCFF00000300FA05FEE7C04680231B06094A13608821C902084A116088218901074A1160074A13608022D203064B1A60064A074B57
:400500001A6070470000104180001041A000104100001D4100031D4101001180000E1F4130B583B0DC4A116808230B431360DB4C03E0012001F01CFA013CD74B1B695B079E
:4005400001D4002CF5D1002C01D1D54B00E00023002B02D00520FFF7BDFFD248A021C900435803229343023A13434350CE4A116808688823CB58C3181868CC490840186061
:400580001368186884241B59C01803681B021B0A80256D042B430360106805680359EB1818680140196013683E229A5C002A08D0BC4CE020800022580F218A430E390A43D4
:4005C00022503E229A5C002A06D0B648E021890042583024A24342503E229B5C002B07D0B049E02292008B588020000603438B500021022001F02EF80021032001F02AF805
:400600000021042001F026F80021002001F022F80021012001F01EF80522A549684601F0E3FD6946012001F043F8002802D00320FFF750FF9F49012001F0A8F8002802D04B
:400640000320FFF747FF974C9B4BE1589B4A0A40E250E1589A4A0A40E250E25880252D062A43E250043BE158964A0A40E250E158954A0A40802189010A43E250E2588021B3
:4006800009020A43E250844A1168904B0B401360002001F07BFC8E4BE2582A43E250E158012291430A43E2506421002001F0B2F97D4B1B683F229A5C052A03D90021854A09
:4006C000986881509A6874215B5AD2181168774B0B408C2189010B431360734B1B687322995C703A8A40110070229A5C7220185C82400A43802109060A438021C900986821
:4007000042509A6852583F229A5C132A06D970229A5C02210A407049986842509A6874215B5AD2189168614B0B40C42189010B4393605D4B1B6873229A5C032191407022B5
:400740009A5C7220185C140084402143022002400A43802109060A438021C900986842509A6852583F229A5C142A0BD97122985C703A82401100032282400A40C52109014D
:40078000986842509A6876215B5AD2181168534B0B4053490B431360434B1B6873229A5C0324210091400A007021585C0231595C8840104371229A5C012191409440220037
:4007C0000A400243802109060A438021C900986842509A6852583F229A5C372A06D970229A5C03210A403F49986842509A6874215B5AD218D1682D4B0B40C621C9010B43ED
:40080000D360294B1B6873229A5C03200400944070229A5C7221595C15008D402900214302400A43802109060A438021C900986842509A6852583F229A5C392A06D970226A
:400840009A5C01210A402849986842509A6874215B5AD2185168154B0B40C42189010B435360114B1A687323D35C032199407023D35C7220105C1C00844021430120034001
:400880000B43802109060B438021C9009068435093685B5803B030BD0000274020A1070002004A000000264010080008FF00FFFF942200101027000004050000FEFCFFFFAD
:4008C000FFFF00FFFFF0FFFFFF8FFFFFFFFCFFFF0C050000140C00004C0C0000FF0000FF004FC300DC0C0000E40C000070B58EB09621002001F08EF801F064F8002814D10D
:4009000001F050F8C0235B00474AD358DB0705D41100464A8B585B005B088B504249434A8B588020000603438B50012001F0C6FA3F4A516C3F4B0B40E82189010B43536465
:40094000536C1B0AFF2213403A2B07D1384A516C394B0B40E82189010B435364002300223649374801F030FB012300228021C905322001F029FB01AC34220021200001F08C
:400980003CFC304D22000021280000F01DF934220021200001F031FC22000121280000F013F9FFF7BDFD24220021200001F025FC2100280000F0A2FA234D22002B000833DE
:4009C00043CB43C243CB43C243CB43C221001F4800F094FA22002B002C3343CB43C243CB43C243CB43C22100194800F087FA22002B00503323CB23C223CB23C223CB23C297
:400A00002100144800F07AFA24220021200001F0F4FBC023DB00E36021000F4800F06EFAFFF75AFD0EB070BD000026400C05000000002740FF00FFFFFFC5FFDF070E004093
:400A4000160E0000000032409422001080023240000332408003324000053240214B984230D00ED8402831D004D800281FD010282AD031E080282BD080235B00984229D006
:400A80002AE0194B984229D007D8A0231B0698420DD0164B984212D01EE0154B98420AD0144B984209D0144B984215D101E0002016E0124814E0124812E0124810E0A02080
:400AC000C0030DE007480BE00F4809E00F4807E00F4805E0034803E00E4801E0A420C0037047C04606005200010000F0090000A0040000F0050000F0030000F00100520088
:400B00000200520003005200010050000200500005005200FF00520070B5124B1A683123D35C002B04D1C421FF310F4800F02CFF0C4B1D682C00B423EB582A6A944663447C
:400B40001B68002B0BDB094B1868FFF787FF6B6801229A6063689B68002BFBD100E0044870BDC0461008000808230010E80700080200500010B50D4B1861002805D0022321
:400B80000370FD33437000234380094B1B6850229A5C002A08D051229B5C002B04D04F3A0449002000F092FC10BDC046E8070008100800086101000810B502481430FFF73E
:400BC000D9FF10BDE8070008F8B54F464646C0B406000D001400002800D16FE1002A00D16EE1072903D94521B84800F0CDFE2368012B03D94621B54800F0C6FE0F23626889
:400C00009A4303D04721B14800F0BEFE237A1F22934303D04821AD4800F0B6FEE368032B03D94921A94800F0AFFE2369012B03D94A21A64800F0A8FE6369012B03D94B215E
:400C4000A24800F0A1FEA369012B03D94C219F4800F09AFEE369032B03D94D219B4800F093FE236A012B03D94E21984800F08CFE636A012B03D94F21944800F085FEA36AE4
:400C8000012B03D95021914800F07EFEE36A032B03D951218D4800F077FE236B072B03D952218A4800F070FE2768072D03D98849884800F069FE012F04D9CA21890085484F
:400CC00000F062FE002F03D10123AB40736002E00123AB40B3606768072D04D9F12189007C4800F051FE0F233A009A4303D07A49784800F049FEA900784B1A687D23D35CAA
:400D00009B191A6890460F2291468A40404690430200484607408F4017431F60277A072D04D9A22189006B4800F02EFE1F233A009A4303D06A49674800F026FE674B1A685A
:400D40009369F31ADB0952691B01D318032D0AD81968E8001F22824091431F22174087400F431F600AE02A1F5968D2001F20904081431F20074097400F435F60E768082DB7
:400D800004D9DD21C900534800F0FEFD032F03D95449504800F0F8FD6900504B1A687C23D35C9B191A689046032291468A40404690430200484607408F4017431F60276953
:400DC000082D03D94849434800F0DEFD012F03D94649404800F0D8FDB36901221100A9408B431740AF401F43B76163699846072D03D93F49374800F0C7FD4346012B03D946
:400E00003C49344800F0C0FD34487E230268D35C9B191A6801273900A9408C468A43110042463A40AA400A431A606B0010229046984403210B0042469340624613439946B5
:400E40007F2203689A5C9446B44463461A684B469A43A3693B40AB401A43E3691940434699400A4363461A6002688023D35CF6183368FF22944693431800236A1F40636A38
:400E80005A00022313403B43A26A9100042739400B431F00E36AD900182319403B000B43226B520161460A401343AD00FE2292001540AB4003433360002002E00E4800E01A
:400EC0000D480CBC90469946F8BDC046482300102703000088230010C50300001008000889020000E9060000690600006A060000030400000404000001005A0070B5050030
:400F00000C0000285DD000295DD0FF230A689A4303D099212D4800F037FDFF2322699A4303D09A21294800F02FFDA3685B0D03D09B21264800F028FD63685B0A03D09C2179
:400F4000224800F021FDE3695B0F03D09D211F4800F01AFD236A5B0F03D09E211B4800F013FD1B4A11688B69EB1ADB0949691B01CB18216829607D211068415C6918E0685E
:400F800008607E211068415C6918206908607F211068415C6918606908607C211068415C6918A06808606168A961116880228A5CAD18A2692A60E2691A60226A5A60002040
:400FC00002E0044800E0034870BDC046482300101008000801005A0070B504000D000A4B1A68B423D3581B181B68002B0ADA0B0C03D00649064800F0C7FC2D042D0C656032
:40100000002000E0034870BD10080008D5020000C823001001008A0070B505000C000368002B01DA002300E0084B002B0BD1EA60230C03D00649074800F0A6FC2404240CE3
:40104000AC60002000E0014870BDC04601008A00BB020000C823001070B505000C1E03D19921084800F090FC074B1A68B423D3585B191B68002B03DAEB682360002000E04C
:40108000024870BD082400101008000801008A0070B504000D00234B1A683123D35C834236D9002936D00B68DB0635D13123D35C984204D3C421FF311B4800F065FC194B6B
:4010C0001B681A6AB0215B5A5C431419174E34602B68DA080021686801F08FF800212000FFF77AFF3468002D03D111490E4800F04BFC2A0000212000FFF78EFF00280DD198
:401100000A4B18680021FFF767FF002808D108E0084806E0074804E0064802E0064800E0054870BD10080008C8230010000800089303000003018A0001018A0010B504008F
:40114000002A17D1002915D1124B1A683123D35C984204D3C421FF310F4800F015FC0D4B1B681A6AB0215B5A5C4314190B4B1C6000200EE0002A09D0002909D0074B59602D
:401180009A60191D2000FFF783FF02E0044800E0034810BD10080008C82300100008000803018A00F0B583B00D001C4B1B68DC68236883422DD947097B01C01A0123834092
:4011C0001E00002903D100F0A0FC019001E000230193124B18680368002B01DA002300E00F4B002B0ED16368BF00DF193B68334203D0B3433B60002400E00A4C0021FFF7FB
:40120000EBFE00E0084C002D04D1019800F081FC00E0064C200003B0F0BDC0460008000801008A00020188000301880004018A000A4B1B68DA68136883420BD943095901AC
:40124000401A0121814052689B009B580B4203D0034802E0034800E003487047000800080101880004018A0000018800034B1B68002B01D1014B18607047C0460C08000852
:40128000F0B5474680B404000F0090461E002D4B1B68002B03D1B5212B4800F075FB294B1B682C2060431C18FF22150035402560330A13406360360CA660244B1A683123F4
:4012C000D35C9D4204D3C421FF31214800F05CFB1E4B1A68B023D35A6B43116A8C466344236166683223D35C9E4204D3E021FF31174800F049FB154B1B681D6A80367601CF
:40130000AD196561A668330C04D0FF214900104800F03AFB330C03D00E490D4800F034FB3604330C1E43AE604346E36127620023A361069B002B02D000229B5EA38104BC3B
:401340009046F0BD0C0800084824001010080008C8230010FF010000F0B58FB0041E03D15221294800F010FB6368032B03D95421254800F009FBE36A002B03D158212248A4
:4013800000F002FB236B002B03D159211E4800F0FBFA07AA1300210061C961C321C921C302AD290023001433C1CBC1C141CB41C10821535E0CAE3380144B1B6836215B5E56
:4013C00007998C466344B370089B0D930B9B0A980096A26AE16AFFF753FF2B69E868002200920021FFF74CFF216B300000F05EFA0023F25E002A05DB1F231A401E3B9340AE
:40140000034A13600FB0F0BD482400101008000800E100E0F8B505000F0016001C00002A03D1FD21224800F0AFFA224B1B68002B03D1FE211E4800F0A7FA1E4B1B682C21D3
:4014400028004843181879435918012213004D68AB401B044568AA4015000269002A20D08F69002F1FD11268002A01DA002200E0114A002A19D132681204120C1343336078
:401480000369DE6001238B614C6204692B0C03D00A490B4800F078FA2A04120CA260002004E0084802E0084800E00748F8BDC046482400100C08000801008A00BB020000A7
:4014C000C823001004028A0007028A0070B504000D0016000F4B1B68002B04D1AF2149000D4800F051FA0B4B1B682C2060431C18236A002B04D1B1214900074800F044FADB
:40150000E369B34204D9236AB6009D51002000E0024870BD0C080008482400100A028A0070B582B0040000230193002804D1D221FF312D4800F028FA2369002B04D1E92168
:401540004900294800F020FA6369002B04D1D421FF31254800F018FA236A002B04D1EA214900214800F010FA6269D5682B0C24D01B041360136820691C4B1A68B423D3584F
:40158000C3181B68002B18DA01A9FFF765FD00280ED1019803681E0CFF221340E269934207D29B00226AD358002B02D0984700E0002631002069FFF70FFD2D042D0C0FD0D3
:4015C00063691D601B68636A002B03D098470023636203E0A36A002B00D098470023A36163691B6802B070BD482400101008000810B50400084B1B68002B04D1B221FF3130
:40160000064800F0C1F9044B1B682C2060431818FFF786FF10BDC0460C0800084824001010B50400094B1B689B6CC340DB0703D4BE21074800F0A8F9044B1B681B6910341F
:40164000A402E3580F20184010BDC0461008000888240010134B1A683C23D35C83421DD9042904D94B1EFF3B9BB2132B18D8FF290CD91F2319400C4A0300C0339B0099508A
:40168000D03080000423835000200AE007231940D0308000044BC150002002E0034800E002487047100800080000264001004A00F0B50138304B1A683D23D35C98424CD2E2
:4016C00003008133FF339B002C4A9B58002B46DB8A78931EDBB20E2B43D84B78002B42D0122B42D80E783500CC78002C01D0132700E01627AF423AD8002C01D0382700E034
:401700007027AF4235D30D79022D16D07F252E401B02F8256D012B4033431204F8256D032A401A43E40680231B051C40144303008133FF339B00114A9C50104D8130FF3011
:40174000800044590E4B1C400B791B07C022920513402343435100200CE00A480AE00A4808E0084806E0074804E0064802E0054800E00448F0BDC04610080008000026405E
:40178000FFFFFFCF01004A0003004A0070B50C00451E134B1A683D23D35C9D421CD211492B008133FF339B005A588020000602435A5003E0012000F0DBF8013C2B009133B5
:4017C000FF339B00074A9B58DB0701D4002CF1D1002C03D1044802E0044800E0002070BD100800080000264002004A0001004A0070B505000C001A4B1B6828229A5C012AE6
:4018000015D1820807211000884327D19200AD1AED00FF20A8401B6820339A181168AC4023004B40184004004C40146016E03A229B5EDBB2994203D176210A4800F0A4F8FD
:40184000074B1B681B68072215408022120615438022920194466444A400E55070BDC04610080008C824001070B504000D000B4B9A680B4B9A420CD1002904D13821FF317D
:40188000084800F081F81034054BA400E058E55003E01034A400044BE05870BD00ED00E000000008C824001000000010F0B5474680B482B0061E01914AD04368032B03D94D
:4018C0003221264800F060F80023F05E002804DBB178FFF78DFF002400E0214C0023F15E7368002912DB88081E4FC0308000C55903221140C900FC3290468A4095439A01DD
:40190000434613408B402B43C35116E089B20F220A40083A92080632920013481018476803221140C900FF252A008A4097439A012B0013408B403B4343600B4B9A680B4B16
:401940009A4206D10023F05E0199FFF78DFF00E0034C200002B004BC9046F0BDC82400100100560000E100E000ED00E00000000810B5034B1B78584300F0BEF810BDC04640
:40198000D400000801BEFEE770B50D00044C18220100200000F039FCA5610020FFF7F2FF00060008054B802212069A649B6C002B01DB002000E002487047C0460000274006
:4019C00003004600054B8022120198585B68FF221A4202D08023DB021843704700002640FEE7C04610B50A4B0268DA6142681A6282685A62C2689A620269DA6242691A6334
:401A000082695A63C2699A63FFF7EAFF10BDC04600060008F0B5474680B4002801D0192300E064238B429B415B42304D2C682268A826A45BA41822680327BA433B401A4321
:401A400022602C682268A45BA2181668284CA046264016602C682668AA229446A25A96193268BA43134333602A6813686546525BD3181A68444614401C60002805D0102904
:401A80001BD921291BD8012024E0184B1B6855229A5C914215D956229A5C914213D957229A5C914211D958229A5C91420FD959229B5C99420DD804200CE000200AE00220CA
:401AC00008E0002006E0012004E0022002E0032000E00520054A1268526813680F218B430343136004BC9046F0BDC04610080008FFFCFFFF000000000230800803D00130F2
:401B00000238FCD1C046C0467047EFF3108072B6704780F31088704710B5B0235B059B899BB2002B04D0B0235B059B899BB201E080235B0080225200934215D1184C23683F
:401B40001968683A9B58C9180B680F208343963A13430B6021680C689C23CB58E318196881430A431A6019E00D4C2368196898229B58C918B02040050A4BC2580A4B134077
:401B80000A681343C022920013430B60226811689C23D358CB18054A82581A6010BDC0461008000848180000FFFCFFFF4418000030B5B0235B059B899BB2002B04D0B023B2
:401BC0005B059B899BB201E080235B0080225200934215D1184C23681968683A9B58C9180B680F208343953A13430B6021680C689C23CB58E318196881430A431A6019E0C9
:401C00000D4D2B68196898229B58C918B0246405C12040012258094B13400A681343C022920013430B602A6811689C23D358CB1822581A6030BDC04610080008FFFCFFFF53
:401C4000B0235B059B899BB2002B04D0B0235B059B899BB201E080235B008022520093420DD1104B1B681A6898215B58D21811680D4B0B40C021C9010B43136011E0094B14
:401C80001B68196898229B58C918084BB0225205D258074B13400A681343C022920013430B60704710080008FF8FFFFF18180000FFFCFFFF30B5B0235B059B899BB2002B0A
:401CC00004D0B0235B059B899BB201E080235B008022520093420DD1134B1B681A6898215B58D2181168114B0B408021C9010B43136018E00C4D2B68196898229B58C918EE
:401D0000B02464050A4822580A4B13400A681343C022920013430B602A6811689C23D358CB1822581A6030BD10080008FF8FFFFF4C180000FFFCFFFF10B5B0235B059B8917
:401D40009BB2002B04D0B0235B059B899BB201E080235B0080225200934217D10020FFF75FFCB0235B055B78002B04D0B0235B055B78DBB200E02123222B03D8002803D192
:401D8000013004E0012002E0002000E0012010BDF8B50700012803D93D493E48FFF7F4FDB0235B055B78002B04D0B0235B055B78DBB200E021239DB2B0235B059B899BB2C2
:401DC000002B04D0B0235B059E89B6B201E0802676000020FFF724FC002814D180235B009E4212D1222D12D82B4B1B685C682B4821582B4B19403B068022520413400B4396
:401E00002350002404E0274C02E0264C00E0254C80235B009E4201D1222D03D880235B009E4232D01C4B1A683123D35C002B04D1C421FF311C48FFF7A7FD174B1B681D6A6A
:401E400080235B009E4203D1002F05D0174A06E0002F03D0164A02E0164A00E0164A01212800FFF7D9F800280FD10B4B1A68B423D3585B191B68002BF7DBEB681B0E1B06FD
:401E8000A0221206934200D100242000F8BDC0464C0A00000C2500101008000818F00000FFFFFFFE0400420008230010010100300300000C010000300100000CF8B5050037
:401EC000012804D9822109012948FFF75DFDFFF733FF002849D0FFF718FE0700002D11D10021244B244AD150E823DB00B0225205D65CF6B20120FFF74BFF041E19D1FFF778
:401F00000BFE16E0B02252051C4BD0581A4B194958501B49565CF6B21A481A581F218A4314390A431A500320FFF722FDFFF7C2FE0024002C15D11049124A8B581F20834317
:401F400006401E438E50002D02D1FFF779FE08E00720FFF70DFDFFF72BFE0020FFF718FF04003800FFF7D5FD00E0074C2000F8BD0C250010307F000000002640101800008A
:401F8000410700001CFF000003004200042805D10B4A116804230B4313600FE0094B1A681168A023D358CB180006C022920410401860034A136804218B4313607047C04681
:401FC00010E000E010080008F0B54F464646C0B483B006000D0000921F00012B03D95B212B48FFF7D1FC330B03D05C212848FFF7CBFC284B1A686E23D35A9B08013B264A49
:4020000013432A009A4301D16B0003D45D212048FFF7BAFC32006A40F0231B011A40141E2FD1FFF772FD01901A4B18686C23C15A83689C4661446E23C35A9A08013A2A401A
:40204000920090466A22825A15402D0A5D432A00424455182A68920A9202FF231E40009B002B01D00134FF3426437F0280239B001F403E4316432E600198FFF74AFD002021
:4020800000E0064803B00CBC90469946F0BDC0464C25001010080008000F00400100CE000749C02252008B589B009B088020C00503438B508B588020000603438B507047C4
:4020C00000002640014B18607047C04610080008002243088B4274D303098B425FD3030A8B4244D3030B8B4228D3030C8B420DD3FF22090212BA030C8B4202D312120902F2
:4021000065D0030B8B4219D300E0090AC30B8B4201D3CB03C01A5241830B8B4201D38B03C01A5241430B8B4201D34B03C01A5241030B8B4201D30B03C01A5241C30A8B426E
:4021400001D3CB02C01A5241830A8B4201D38B02C01A5241430A8B4201D34B02C01A5241030A8B4201D30B02C01A5241CDD2C3098B4201D3CB01C01A524183098B4201D3E7
:402180008B01C01A524143098B4201D34B01C01A524103098B4201D30B01C01A5241C3088B4201D3CB00C01A524183088B4201D38B00C01A524143088B4201D34B00C01A81
:4021C0005241411A00D20146524110467047FFE701B5002000F006F802BDC0460029F7D076E770477047C046002310B59A4203D0CC5CC4540133F9E710BD030082189342DE
:4022000002D019700133FAE77047030030B5002A0DD00C7801335D1E013A2C700131002CF5D19A189A4202D01C700133FAE730BDF8B5C046F8BC08BC9E467047F8B5C046F3
:40224000F8BC08BC9E4670470300000001000000010000000000000005036000040000000100000000000000010000000604600008000000C8070008B101001073797374FA
:40228000656D5F70736F63365F636D30706C75732E6300001901020000000000030000000000000000000000680000000000000000000000000000001212000000000000A3
:4022C000080000000000000000000000006000BA0000000000000000000000000000000000001D1D0200000000000000000000006000000000000000000000000000000020
:40230000000000000000000047656E6572617465645F536F757263655C50536F43365C70646C5C647269766572732F7065726970686572616C2F6970632F63795F697063F4
:402340005F6472762E68000047656E6572617465645F536F757263655C50536F43365C70646C5C647269766572735C7065726970686572616C5C6770696F5C63795F6770DE
:40238000696F2E630000000047656E6572617465645F536F757263655C50536F43365C70646C5C647269766572735C7065726970686572616C5C6770696F5C63795F677076
:4023C000696F2E680000000047656E6572617465645F536F757263655C50536F43365C70646C5C647269766572735C7065726970686572616C5C6970635C63795F6970633F
:402400005F6472762E68000047656E6572617465645F536F757263655C50536F43365C70646C5C647269766572735C7065726970686572616C5C6970635C63795F6970632B
:402440005F6472762E63000047656E6572617465645F536F757263655C50536F43365C70646C5C647269766572735C7065726970686572616C5C6970635C63795F697063F0
:402480005F706970652E630047656E6572617465645F536F757263655C50536F43365C70646C5C647269766572735C7065726970686572616C5C70726F745C63795F70721F
:4024C0006F742E630000000047656E6572617465645F536F757263655C50536F43365C70646C5C647269766572735C7065726970686572616C5C737973696E745C63795F06
:40250000737973696E742E630000000047656E6572617465645F536F757263655C50536F43365C70646C5C647269766572735C7065726970686572616C5C737973706D5CA7
:4025400063795F737973706D2E63000047656E6572617465645F536F757263655C50536F43365C70646C5C647269766572735C7065726970686572616C5C747269676D759A
:40258000785C63795F747269676D75782E6300000000204000002440000000400000000000002340000030400000314000009F400000224000001040020202020202020282
:4025C0000210101D800017007500FF030602063604102000000000007FC0000000040000000000000019324B647D00804000080B100000000000FF012002001F00800004B4
:40260000FF081018001000140018001C4044484C50000000081000000800000004000000041000000012000004210000002100000016000040114002C41300138013A01342
:40264000200000001C0000000000214000002540000001400000344000002440000031400000324000001F4100002340000011400101010101010101011010108000190076
:402680005500F0000501053B04101C01010000000FC000000004000001010101011D3A57789600082000101208000000001F00000010000F002000023F06080E00080009AB
:4026C000000A000B24282C3034000000100000009000000088000000080000008000000004F0000000F00000400200002005A000D00100018001A00120000000100000002A
:40270000000000000000001000000008C000000024270010C0000008400500003C060008D80100000048E80100127A0000093D0000093D0000093D0004000000A00F0000F4
:402740000000D007E9000010C10000100000000010B50004400B27D0144B1A68146AB023D15ACA00531AE3181B68002BF4DA3E220F4B1A600F4A104B1A60104B0621A322F9
:40278000D20099500E4A98509B58084B1A68106AB023D15ACA00531AC31800225A60084B064AD358002BFADA10BDC04610080008040126401E1F00000801264000002640B3
:4027C0001C05000010B54378FF2B20D100F002FA04000F4B1A683123D35C042B04D8C421FF310C4800F036FA094B1A68116AB023D35A9B00CB18DB685A68116801230B437B
:4028000013601368DB07FCD4200000F01BFA10BD1008000808230010F0B585B001900291544B1A683123D35C002B04D1C421FF31514800F00FFA4F4B1B681E6AB4229A58F5
:40284000971950229B5C002B77D000F0D3F9050003283CD1474B1A683123D35C062B04D8C421FF31444800F0F5F9424B1968B023CB5A5A00D21853000A6A94466344B42249
:402880008A58D3181B68002B23DB002000F0D2F93A4B98421FD03A4B1A6900230021012000F0B8F9002803D0364C17E0013400E00024002000F0BEF9304B984202D0324B50
:4028C0009C42F3D9304B9C4207D92E4C06E0002404E02C4C02E02B4C00E00024002C46D100F078F90390294B294AD358002B13DA234A0121300000F075F900280ED1029899
:40290000FFF726FF019B002B0AD03B68002BFCDB00F078F9040004E01A4C02E0194C00E01C4C032D05D10121002000F07BF90028F9D1039800F086F919E000F04BF905001E
:402940000F4A0121300000F04DF9002809D1019B002B08D03B68002BFCDB00F053F9040002E0084C00E00B4C280000F06BF9200005B0F0BD100800080823001001018800A0
:40298000E807000805005200EF4902001C0500000000264001005000F0B54F464646C0B4824B1A685468B0235B055B78002B04D0B0235B055B78DBB200E02123212B67D132
:4029C000B023D15ACB005B1A116A8C46634419680029F5DADD6802212943D960B023D15ACB005B1A116A8C466344D968C9073ED5D9680904090C8C4684271168D559A84654
:402A000041440968090A0904FF26360431400D0088261168894691598846C14449460968090A0906294365462943D9601168D359C9180A685E4B98461A4090252D012A43E9
:402A40000A605A4B99461A6813689C46925962441368414619400B002B4313604B461A681568D15969180B689359EB181B684F4B1A68B021555AEB005B1B156AAC4663447C
:402A800000255D60156A515ACA00531AEB185B68484A116904230B431361012801D030BF00E020BF414B1A68B023D15ACB005B1A116A8C46634419680029F3DAB02149059A
:402AC0004978002904D0B02149054978C9B200E02121212932D1D968C90722D510688421525880180468324A1440DB681B0C1B02FF2109020B40234303602C4B1968882342
:402B0000C8580B689C46604403681A400D6AB023CC5AE1000B1BEB18DB681B0E1B021A430260224B1A68106AB023D15ACA00531AC318DA6802218A43DA6028E086235B0004
:402B4000E358002B23D11C4807681C4BA321C9005E581B4A904615681A4A0260062058503E21424611600631174A9950164B134AD358002BFADA154A86235B00E2500E4B83
:402B80001F60A323DB000D4AD6500D4B1D60074B1A68106AB023D15ACA00531AC31800225A600CBC90469946F0BDC04610080008FF00FFFF00ED00E008012640000026407A
:402BC000040126401E1F00001C050000AAAAAAAA0000000001B40248844601BC604700BF0B1B001001B40248844601BC604700BF1910001001B40248844601BC604700BF31
:402C00003504001001B40248844601BC604700BF190B001001B40248844601BC604700BF1514001001B40248844601BC604700BFA511001001B40248844601BC604700BF68
:402C40003112001001B40248844601BC604700BF131B001001B40248844601BC604700BF891900100000000000000000000000000000000000000000000000000000000039
:402C80000000000000000000000000000000000000000000000000000000000000000000000000000000000000000000000000000000000000000000000000000000000014
:402CC00000000000000000000000000000000000000000000000000000000000000000000000000000000000000000000000000000000000000000000000000000000000D4
:402D00000000000000000000000000000000000000000000000000000000000000000000000000000000000000000000000000000000000000000000000000000000000093
:402D40000000000000000000000000000000000000000000000000000000000000000000000000000000000000000000000000000000000000000000000000000000000053
:402D80000000000000000000000000000000000000000000000000000000000000000000000000000000000000000000000000000000000000000000000000000000000013
:402DC00000000000000000000000000000000000000000000000000000000000000000000000000000000000000000000000000000000000000000000000000000000000D3
:020000041008E2
:4000000000780408EB0208100D00000051030810510308105103081051030810000000000000000000000000000000004D0308104D030810000000004D0308104D030810DA
:400040004D0308104D0308104D0308104D0308104D0308104D0308104D0308104D0308104D0308104D0308104D0308104D0308104D0308104D0308104D0308104D03081000
:400080004D0308104D0308104D0308104D0308104D0308104D0308104D0308104D0308104D0308104D0308104D0308104D0308104D0308104D0308104D0308104D030810C0
:4000C0004D0308104D0308104D0308104D0308104D0308104D0308104D0308104D0308104D0308104D0308104D0308104D0308104D0308104D0308104D0308104D03081080
:400100004D0308104D0308104D0308104D0308104D0308104D0308104D0308104D0308104D0308104D0308104D0308104D0308104D0308104D0308104D0308104D0308103F
:400140004D0308104D0308104D0308104D0308104D0308104D0308104D0308104D0308104D0308104D0308104D0308104D0308104D0308104D0308104D0308104D030810FF
:400180004D0308104D0308104D0308104D0308104D0308104D0308104D0308104D0308104D0308104D0308104D0308104D0308104D0308104D0308104D0308104D030810BF
:4001C0004D0308104D0308104D0308104D0308104D0308104D0308104D0308104D0308104D0308104D0308104D0308104D0308104D0308104D0308104D0308104D0308107F
:400200004D0308104D0308104D0308104D0308104D0308104D0308104D0308104D0308104D0308104D0308104D0308104D0308104D0308104D0308104D0308104D0308103E
:400240004D0308104D0308104D0308104D0308104D0308104D0308104D0308104D0308104D0308104D0308104D0308104D0308104D0308104D0308104D0308104D030810FE
:400280004D0308104D0308104D03081010B5054C237833B9044B13B10448AFF300800123237010BD504902080000000030490810084B10B51BB108490848AFF30080084839
:4002C000036803B910BD074B002BFBD0BDE81040184700BF0000000054490208304908101C430208000000007047FFF7FDFF72B6104C114DAC4209DA21686268A368043B15
:40030000A2BFC858D050FAE70C34F3E70B490C4A00209142BCBF41F8040BFAE709480A490860BFF34F8F00F0B5FA00F08FFA00F07FF9FEE7344908104C49081050490208FA
:4003400060AA02080040020808ED00E0FEE7FEE700B504207146084202D0EFF3098001E0EFF30880043001F0C9FCFEE71F4BD3F80833C3F30803002B37D01C4BD3F8403347
:40038000DBB21B4A126812B1012A06D02AE0452B2BD10122164B1A607047742B03D10122134B1A711AE0752B03D10122104B5A7114E06C2B07D10F4BD3F804210C4BDA804E
:4003C00001221A720AE0682B03D10122084B5A7204E06D2B02D10122054B9A720022044B1A6070470022024B1A607047000066406C4902080000144170B50122694B5A613A
:40040000694B1C88B4F57A7F40D2684B1B78002B38D1674B9A89E300664919448A80664919448A8065490B449A80654B1B6803EB83039A00634B1A44536823B94FF476712D
:40044000614801F04BFC0021604802F003FA80B2584EE40033195880574D2B19588057490C44608001F5FA5003884E4AD2F8082192B226F8332025F8332021F83320013358
:40048000038055E00022494B1A7051E00422504BDA60474B1B69B3F5FA7F03D20133444A136105E002224B4BDA600022404B1A6102223C4B5A613E4B9B7A7BB13E4A938BFF
:4004C00083F0080393833B4A538E83F0400353863A4A138F83F00403138703E0344B5B7A03B1FEE700F0F4F988B101220021084600F034FB002406E00822374BDA60FA2098
:4005000001F0C8FB0134052CF6DD02F0AFFC2B4B03F5FA52D2E90201013041F10001C2E9020102211F4A916103F5FA5300221A801C4B01221A619A6103F55C03D3F80421E1
:400540001B4B9A815B799BB1194B1B7D83B9234BD3F8002182F40062C3F80021D3F8042182F40062C3F804210122114B1A7516E00F4B1B7A3BB10E4BDA88184BC3F8002113
:40058000C3F804210BE00A4B1B7943B1084B1B7D2BB90A2001F096FB0122054B1A7502F0CFFB70BD00003840508A02088C4202086C490208B84B0208688A0208106B0208AC
:4005C0006C4B0208184708108C38081000001D410005324080033240000332400000144110B562B600F008FB0C4C0D4A0021204601F0E6FB0121A1600A4A204601F0E0FBD2
:400600000223A3600849094802F06EFC02F008FC02F0D6FB02F0A6FB10BD00BF00003840F4470810AC48081004011441D439081008B5FFF7D5FF1549154800F033FF0224DC
:40064000144B5C6041F64873134A1A4400200021C2E90001114A1A44C2E90001104A1344C3E900010F4B95221A8000225A8017219980DA800C4B9C6101229A6102F060FBF1
:40068000FFF774FE0A2001F005FBF9E7AC3808100000664080033240B84B0208688A0208106B0208A84B02080000384008B5012000F086FE08BD00BF704700BF5C4AD2F881
:4006C000803303F00F0303F1D00152F8212002F00702032A04D0042A05D092B9554914E0554A116811E003F1C002514951F8222002F01F02112A06D0132A04D04FF4FA417F
:4007000003E04E4901E04FF400418BBB484BD3F8902502F00100D3F88825C2F30172D3F8883513F0405F07D0414BD3F88835C3F30173012B02D102E0012300E0002303B1F3
:4007400008B9032A46D13A48D0F88025C2F31103D0F88425C2F30C02D0F88005C0F300600130B1FBF2F202FB03F2B2FBF0F131E0012B2FD12E4BD3F8402602F00100D3F842
:400780000026C2F30172D3F8003613F0405F07D0274BD3F80036C3F30173012B02D102E0012300E0002303B108B9032A12D12048D0F8002602F07F02D0F80036C3F30423A3
:4007C000D0F80006C0F3044002FB01F2B2FBF3F2B2FBF0F1164BD3F88033C3F3011321FA03F215494A601648D0F89030C3F3072301330069000E0130B2FBF0F08860B2FB9F
:40080000F3F3CB600B6103F5742202F23F220D48A0FB0202C2F387420A7503F2E7330A4AA2FB03239B098B61DB03CB61704700BF0000264000127A009042020800366E01BE
:400840000000214083DE1B43D34D621008B50D4801F03EFBFFF730FFFFF730FF00221146042000F075FB084800F008FC074B1B6893F8513013B1064800F070FC00F0B2FA14
:4008800008BD00BFB444081084490208F8A90208B038081008B501F08CFA074AD2F8883043F47003C2F88830BFF34F8FBFF36F8F01F083FA08BD00BF00ED00E0884203D162
:4008C000914203D10120704700207047002070472DE9F0479AB000242746A04626468EE0E3005E4A1A4400219171B2F802905C4A1A445C490B44528859884846FFF7DEFF87
:4009000028B9564B03EBC40380229A710126E300524A1A449588524A1A4452490B44928899882846FFF7CAFF30B94C4B03EBC4039A7940329A710126484B33F834A0484B55
:4009400033F83420474B33F834105046FFF7B6FF30B9424B03EBC4039A7920329A710126AAF10C0ABAF1000FB8BFCAF1000ABAF1090F06DD394B03EBC4039A7910329A710E
:40098000012640F2E6339C421FDC631C334A02EBC3035B88C9EB0303002BB8BF5B421BB2314A5288053A934204DB2F4A1288053293420ADD08F101080FFA88F8274B03EB5B
:4009C000C4039A7902329A710126C9EB0505002DB8BF6D422DB2244BDB88053B9D4204DB214B9B8805339D4208DD01373FB21B4B03EBC4039A7901329A7101260134B4F5D2
:400A00007A7FFFF66DAF6422002101A802F098FA08EB0703002B14DD3B464246134901A802F096FA01A9124800F03CFD104AD2F80832C3F30803D2F80822C2F3C032D34233
:400A4000F4D1064B41F6507223F8028041F652729F5230461AB0BDE8F08700BF106B0208B84B0208688A0208A84B0208E43808100000664070B59EB06422002105A802F0A5
:400A80005FFA0024254634E040F2E6339C420CDC631C1A4A02EBC3035B8802EBC40255885D1B002DB8BF6D422DB2144E06EBC40042888388D11A36F83460807903900296B9
:400AC00001950029B8BF494200910D4905A802F03FFA05A90B4800F0E5FC0A4AD2F80832C3F30803D2F80822C2F3C032D342F4D10134B4F57A7FC7DB1EB070BD106B02081D
:400B0000003908100000664000B59DB06422002103A802F015FA0E498A88CB8808884988019100900B4903A802F012FA03A90A4800F0B8FC084AD2F80832C3F30803D2F8AA
:400B40000822C2F3C032D342F4D11DB05DF804FBA84B02081C3908100000664070B59AB005460E4614466422002101A802F0E8F90EB1FFF7C9FF45B31649174800F092FC5D
:400B8000154AD2F80832C3F30803D2F80822C2F3C032D342F4D1114A41F65273D35A41F65071525A0E4901A802F0D2F901A90A4800F078FC084AD2F80832C3F30803D2F876
:400BC0000822C2F3C032D342F4D10CB1FFF752FF1AB070BD9039081000006640106B0208B439081008B50249024800F081FF08BDC0A902080000664008B5114B1B785BB9DE
:400C0000104A1149114800F04FFD1149114801F007F801220A4B1A700E4BB3F90030002B08DB590903F01F03012202FA03F30A4A42F82130054A136843F00043136008BDA0
:400C4000044B0208C0A90208B441081000006640E50B0810AC41081000E100E01F4B98422DD00CD840282ED003D8E8B1102828D02FE0802829D0B0F5807F28D029E0184B40
:400C8000984228D006D8B0F1204F0DD0154B984212D01EE0144B98420AD00133984209D0023B984215D101E0002070470F4870470F4870470F4870474FF4A00070470748BB
:400CC00070470D4870470D4870470D487047034870470C4870474FF4A400704706005200010000F0090000A0040000F00100520002005200030052000100500002005000E9
:400D000005005200FF00520038B5124B1B6893F83130012B04D840F2C3110F4800F0DEFF0C4B1D682A6AB5F8B03013442C46D5F8B420D358002B0BDB084B1868FFF78EFF27
:400D40006B6801229A6063689B68002BFBD138BD034838BDF8A90208F4410810084B0208020050001A4B186128B102230370FF23437000234380174B1B6893F850202AB31B
:400D800000B583B0B3F93830ADF80030002301931149684600F044FFBDF90030002B08DB590903F01F03012202FA03F30B4A42F82130084B1B6893F8513023B102220849E5
:400DC000012000F077FA03B05DF804FB704700BF084B0208F8A902088D43020800E100E04544020808B50248FFF7BCFF08BD00BF1C4B020838B50B4B1B68D3F8B4301B5829
:400E0000002B0DDA0D4604460B0C1B0423B140F2D521054800F062FFA9B26160002038BD024838BDF8A902083442081001008A0038B50368002B01DA002300E0094B73B91E
:400E40000D460446C2600B0C1B0423B140F2BB21054800F043FFA9B2A160002038BD014838BD00BF01008A003442081038B504460D4619B99921084800F030FF074B1B683B
:400E8000D3F8B4301B59002B03DAE3682B60002038BD034838BD00BF74420810F8A9020801008A00254B1B6893F8313083423AD900293AD00B6813F01F0F38D170B50D460A
:400EC00004461E4B1B6893F83130984204D340F2C3111B4800F002FF184B1B68186AB3F8B03004FB0304174E34602A68D2080021686802F025F800212046FFF77BFF3468D4
:400F000025B940F293310E4800F0E8FE2A4600212046FFF78DFF60B900210A4B1868FFF769FF40B970BD084870470748704706487047064870BD054870BD00BFF8A9020834
:400F400034420810204B020803018A0001018A0010B504461346B2B9A9B9124B1B6893F83130984204D340F2C3110F4800F0B6FE0C4B1B681A6AB3F8B03004FB03240B4B3C
:400F80001C60002010BD43B149B1084A51609360111D2046FFF786FF10BD054810BD044810BD00BFF8A9020834420810204B020803018A002DE9F0411B4B1B68DC682368DB
:400FC00083422CD90D464609A0EB4610012303FA00F819B900F0EDFE074600E00027124B18680368002B01DA002300E00F4B83B9626852F8263018EA030F05D023EA080338
:4010000042F82630002400E0094C0021FFF7F2FE00E0084C25B9384600F0CFFE00E0064C2046BDE8F08100BF204B020801008A00020188000301880004018A000B4B1B6887
:40104000DB681A6882420CD94109A0EB4110012202FA00F05B6853F82130184203D004487047044870470448704700BF204B02080101880004018A0000018800024B1B6892
:401080000BB9014B186070472C4B02082DE9F8430446884691461D46089F2C4B1B681BB9B5212B4800F01AFE284B1B682C2000FB04F01C18EEB21E50C5F3072363602D0CB6
:4010C000A560244B1B6893F831309E4204D340F2C311214800F002FE1E4B1B68196AB3F8B02006FB02162661666893F832309E4204D340F2DF11184800F0F0FD154B1B68B9
:401100001D6A803605EB46156561A668330C1B0423B14FF4FF71104800F0E0FD330C1B0423B140F2FF110C4800F0D8FDB3B243EA0646AE60C4F81C90C4F820800023A361E5
:4011400017B1B7F90030A381BDE8F8832C4B0208B4420810F8A9020834420810F0B58FB0044618B95221274800F0B8FDA369072B03D95621234800F0B1FDE36A1BB9582101
:40118000204800F0ABFD236B1BB959211D4800F0A5FD07AD04F114060FCE0FC537682F6002AD26460FCE0FC533682B60164B1B68B3F93620079B1344ADF83030089B0D93A1
:4011C000A26AE16A0CAD00953B460A98FFF75EFF00210091069B0A460598FFF757FF216B284600F01DFDBDF93030002B08DB590903F01F03012202FA03F3044A42F82130BB
:401200000FB0F0BDB4420810F8A9020800E100E0F8B506460F461D4614461AB9FD211F4800F05CFD1E4B1B681BB9FE211B4800F055FD1B4B1B682C2101FB063001FB0731FC
:401240004B68012202FA03F31B04466802FA06F60269EAB18F69EFB91268002A01DA002200E0104AC2B92288134323600369DC6001238B614D620469330C1B0423B140F22A
:40128000BB21094800F02AFDB2B2A2600020F8BD0648F8BD0648F8BD0548F8BDB44208102C4B020801008A003442081004028A0007028A00F8B505460F4616460E4B1B6857
:4012C00023B94FF4AF710D4800F008FD0A4B1B682C2404FB0534236A23B94FF4B171074800F0FCFCE369B34204D9236A43F826700020F8BD0248F8BD2C4B0208B442081021
:401300000A028A0070B582B000230193044620B940F2D111284800F0E1FC236923B94FF4E971254800F0DAFC636923B940F2D311214800F0D3FC236A23B94FF4EA711E480A
:4013400000F0CCFC6369DD682A0C20D012041A601B682069194B1B68D3F8B430C358002B15DA01A9FFF782FD60B9019803681E0CDBB2E269934206D2226A52F8233013B13F
:40138000984700E0002631462069FFF733FDADB275B16369ADB21D601B68636A1BB198470023636202E0A36A03B198470023A36163691B6802B070BDB4420810F8A9020882
:4013C00010B50446074B1B6823B940F2B111064800F084FC034B1B682C2000FB0430FFF791FF10BD2C4B0208B442081010B4D0F8003303F00F03072B06D900230DE0D0F8A0
:401400004043CC54013300E000239342F7D306E0D0F8404321F8134001339342F8D35DF8044B704710B51446D0F80833C3F308039A4200D31C462246FFF7D8FF204610BD0B
:4014400010B4D0F8003203F00F03072B06D900230DE0CC5CC0F84042013300E000239342F7D306E031F81340C0F8404201339342F8D35DF8044B704710B51446036813F4F4
:40148000006F01D0802200E04022D0F80832C3F30803D31AA34200D81C462246FFF7D0FF204610BD30B4036813F4006F01D0802200E04022002408E0D0F80832C3F3080390
:4014C0009A42F9D0C0F8405201340D5D002DF3D130BC70472DE9F84305460C46036813F4006F02D04FF0800801E04FF04008D5F8007207F00F07A26A012A19D9D4F8249005
:40150000E262561EB9F1000F00D026B940F27351254800F0E3FB324649462846FFF7ACFFA36A1B1AA362072F00D9400048446062D5F80832C3F30803984533D0A36A012B7F
:4015400030D10023A362072F02D8636A1E7801E0636A1E8800F02DFCC5F840624FF40073C5F8803FD5F8803F00F027FCD5F8883F23F4007222F0010242F4007623F4EE63EC
:4015800023F0030323B140F22A41084800F0A6FBC5F8886F236843F002032360236B0BB101209847BDE8F883F4420810344308102DE9F04105460C46036813F4006F01D0E9
:4015C000802600E040267608A769D4F81C8017B1B8F1000F04D14FF49961314800F07EFB424639462846FFF71DFF236A03442362E3691B1AE36173BBA368FBB1E3689E42E0
:4016000001D8013E00E05E1E2B6813F4006F01D0802300E040239E4204D34FF42071214800F05CFBD5F8043323F0FF03F6B21E43C5F804630123C5F8C83F02E00023C5F84B
:40164000C83F636823F001036360236B33B304209847BDE8F081A169D5F8002302F00F02072A00D940000844A0619E4216D95C1E2B6813F4006F01D0802300E040239C42B6
:4016800004D34FF42071074800F028FBD5F8043323F0FF02E3B21343C5F80433BDE8F081F442081034430810002800F0A48170B50546002900F0A18116460C460B78022BED
:4016C00003D93F21A24800F009FB637B023BDBB2062B03D940219E4800F000FBA37B3BB1022B05D0032B03D04121994800F0F6FA94F82130012B03D94221954800F0EEFABC
:4017000094F82830012B03D94321914800F0E6FA2378012B06D86368083B082B94BF0023012307E0A37F2BB16368013B062B94BF002301231BB14521854800F0CFFAA368B6
:40174000053B042B03D94621814800F0C7FA6369FF2B03D947217E4800F0C0FAA369FF2B03D948217A4800F0B9FAA37C6BB1237833B9A368092B05D1A37B2BB1012304E0DA
:40178000012302E0012300E000231BB14A21704800F0A4FA636B23F4366323F00D031BB14C216B4800F09AFAE36B23F4EE6323F003031BB14D21664800F090FA2378022B75
:4017C00001D1A37F13B16268013A00E00022237F13B14FF4803100E00021A368082B02D84FF4006300E000230B4302F00F02134343F000732B60226B2B6813F4006F01D0CF
:40180000802300E040239A4203D36221504800F065FAA26B2B6813F4006F01D0802300E040239A4203D36321494800F057FA626A2B6813F4006F01D0802300E040239A4269
:4018400003D36421424800F049FA23781B0603F040732B64637F0BB1402200E00022A37C13B14FF4806300E000231343227C12B14FF4807200E000221343627C12B14FF429
:40188000007200E000221A43E36A013B1B0403F470231343627B013A02F007021343A27B120102F030021343AB64237B13B14FF4807200E00022E37B23B92378022B03D13E
:4018C000012302E0012300E0002313B14FF4007300E000231A43A368013B03F00F031343C5F80033227DA3691B0403F47F031343C5F81033E26AD5F8003303F00F0303332F
:401900009A4201D3102A03D97A21114800F0E6F9E37F23B12378012B03D0002302E0002300E0012313B14FF4807200E00022637B013B03F007031A43A37B1B0103F0300353
:4019400013436B64237B2BB14FF4807203E000BF784308100022A368013B03F00F0313432278012A02D14FF4803200E000221343C5F8003294F83030C5F8043394F82030CA
:4019800013B14FF0007200E0002294F82130012B02D14FF0807300E00023134394F82820012A02D14FF4803200E00022134394F8242013432B6594F83830C5F80432636BBF
:4019C00023F4926323F002031B051B0DC5F8C83FE36B23F08C035B055B0DC5F8883F76B1002070603060B060F0603062F0623063044B736370BD04487047034870BD002010
:401A000070BD00BFEFCDAB000160AA000B694A69934202D34869181A7047CA694869101A184470472DE9F04107460D46036813F4006F02D04FF0800801E04FF040084FEABA
:401A40005808D7F80863C6F308062C6926E00134EB689C4200D100246B699C420FD12B6B0BB1082098476B699C4208D10023C7F8C83F0CB1013C13E0EC68013C10E0D7F873
:401A80004023D7F8003303F00F03072B02D8AB681A5502E0AB6823F81420013E002ED6D12C61EC6829463846FFF7B0FF201A804519D908B1441E00E000243B6813F4006F3A
:401AC00001D0802300E040239C4204D34FF42071064800F003F9D7F8040320F0FF03E0B21843C7F80403BDE8F08100BF3443081038B504460D46D0F8003E13F0080F35D0BE
:401B0000D0F8CC3F13F448730AD04A681A434A60C0F8C03FD0F8C03F0B6B0BB110209847D4F8CC3F13F4006F09D06B6843F400636B604FF40063C4F8C03FD4F8C03FD4F868
:401B4000CC3F13F0010F11D0EB6923B129462046FFF72EFD05E0AB681BB129462046FFF761FF0123C4F8C03FD4F8C03FD4F8003E13F0040F2ED0D4F88C3F13F4A0630AD016
:401B80002A681A432A60C4F8803FD4F8803F2B6B0BB120209847D4F88C3F13F0010F08D029462046FFF796FC0123C4F8803FD4F8803FD4F88C3F13F4007F0BD00022C4F856
:401BC000882F2B6823F001032B60EA622B6B0BB10220984738BD00BF38B50D4B9A680D4B9A420FD10D46044621B940F237110A4800F074F804F11003064A52F8230042F8AD
:401C0000235038BD1030054B53F8200038BD00BF00ED00E000400208B84308100000081048B338B504460D464368072B03D93221134800F053F8B4F900306268002B08DB6F
:401C40005201D2B203F1604303F5614383F8002305E003F00F035201D2B20A49CA540A4B9A680A4B9A4208D12946B4F90000FFF7B3FF002038BD06487047002038BD00BF77
:401C8000B843081014ED00E000ED00E0004002080100560010B5044605E0084B186800F07FF8A4F50044B4F5004FF6D8044B186800FB04F000F074F810BD00BFAC42020853
:401CC000A842020808B5034B1B7800FB03F000F067F808BDA442020801BEFEE738B50D46044C18220146204601F056F9A5610020FFF7F2FFB8480208FEE700BF08B5026823
:401D0000254BDA6142681A6282685A62C2689A620269DA6242691A6382695A63C2699A631E4A916AD963D16A1964516A5964516B9964926BDA64F1EE103A13F0900F27D0E2
:401D4000026A154B1A65426A5A65826A9A65C26ADA65026B1A66426B5A66826B9A66C26BDA66026C1A67426C5A67826C9A67C26CDA67026DC3F88020426DC3F88420826D20
:401D8000C3F88820C26DC3F88C20026EC3F89020FFF7B2FF08BD00BFB848020800ED00E00230800803D001300238FCD100BF00BF7047EFF3108072B6704780F31088704740
:401DC00000287DD00346002A7CD070B45068000280B29568AD0405F480252843D468240404F4403404431069000600F0E0602043147F0CB1012400E0002420430C1DA40115
:401E00001851D06828B903EB81100024C0F808410CE0012805D1146803EB8110C0F8084104E003EB81100124C0F80841106938B9546903EB8110C0F80C419469C0F810415B
:401E4000146803EB8110C0F81441906CB0F1FF3F17D0946A04F00F04166B360206F470663443956B2D0405F470252543146C2403A4B22C430001C0B2204303EB8114C4F8EB
:401E80002001506A00F00300D66A360106F030063043556B2D0205F440752843D46BA401E4B20443506C800000F00C00204303EB8113C3F82401126AC3F83821002003E0E5
:401EC000024870470148704770BC70470100B600014B1860704700BFF8A9020870B50E461446054620B94FF489715C48FFF7F6FE24B940F213115948FFF7F0FE002D00F0CB
:401F0000A780002C00F0A680731EDBB2022B04D94FF48F715148FFF7E1FE23683BB1B3F1804F04D040F21F114C48FFF7D7FE2379032B04D94FF490714848FFF7CFFE6379C6
:401F400043B1082B06D0102B04D040F221114348FFF7C4FEE3883BB1B3F5006F04D04FF491713E48FFF7BAFE23896BB1B3F5807F0AD0B3F5007F07D0B3F5407F04D040F23F
:401F800023113648FFF7AAFEA37A33B1802B04D04FF492713148FFF7A1FEE37A33B1402B04D040F225112D48FFF798FE237B33B1202B04D04FF493712848FFF78FFE2368AE
:401FC0002B60227961790A43E3881A4323891A43A37A1A43E37A1A43237B134311B94FF4805200E000221343012E01D0032E14D16B606279082A01D1032200E00122C5F8BF
:40200000082FAA6A617B09B1012100E000210A43AA622A6A42F001022A62023EF6B2012E1AD8AB606379082B01D1032300E00123C5F8143FAB6A627B0AB1022200E00022EC
:402040001343AB622B6A43F002032B62002070BD034870BD024870BD002070BD6C45081001002E00002800F0E081F0B5032840F0D980032921D809B9072A0AD9012901D159
:402080000F2A06D9022901D1032A02D9032914D19AB9BA4B1D68AE6895F8710001FA00F7032404FA00F307EA030095F870301340034343F08043C6F80034B04B1B6893F84C
:4020C0003F0037281ED903291CD809B9072A0AD9012901D10F2A06D9022901D1032A02D903290FD172B99D6893F8710001FA00F6032404FA00F0304093F8703013400343CA
:40210000C5F8DC3C012922D871B9072A56D89B4B18688468B0F87430234453F8220020F47F4043F8220049E0012947D10F2A45D8924B1B689868B3F87630184450F8223013
:4021400023F47F0323F47F4340F8223036E002291BD1032A32D8894C23689868B3F87830184450F8223023F47F0323F47F4340F8223020688468B0F87830234453F82200C2
:4021800020F0F80043F8220018E0032916D1AAB97A4C20688568B0F87A302B4453F82200C0B243F8220020688468B0F87A30234453F8220020F0F80043F82200032900F2F7
:4021C000338109B9072A0DD9012901D10F2A09D9022901D1032A05D9032940F02581002A40F02281654B1D68AC6895F87360032000FA06F795F8703095F8726003FA06F6EC
:402200003E4395F87170B940B840014031431A4041EA020343F00043C4F80034AB68D3F80034F0BD032921D809B9072A0AD9012901D10F2A06D9022901D1032A02D903291A
:4022400014D19AB94D480668B76896F8714001FA04FE032505FA04F00EEA000496F870001040204340F08040C7F800044348006890F83F40372C1ED903291CD809B9072AE6
:402280000AD9012901D10F2A06D9022901D1032A02D903290FD172B9866890F8714001FA04F7032505FA04F43C4090F8700010402043C6F8DC0C012932D8A9B9072A00F229
:4022C0008480FF2B00F281802C480468A568B4F87400284450F8224024F47F441B029BB2234340F8223070E001296ED10F2A6CD8B3F5803F69D2214800688468B0F87600B2
:40230000044454F8220020F47F0020F47F401B0223F07F4323F0FF03034344F8223054E002292DD1032A50D8B3F5803F4DD205981F284AD8114D28688468B0F87800044426
:4023400054F8220020F47F0020F47F401B0223F07F4323F0FF03034344F822302B689868B3F87830184450F8223023F0F804059BDB00DBB2234340F8223026E0F8A902081A
:40238000032922D10ABBB3F1807F1ED205981F281BD8264D28688468B0F87A00044454F82200C0B240EA032344F822302B689868B3F87A30184450F8223023F0F804059B2B
:4023C000DB00DBB2234340F8223003292CD809B9072A0AD9012901D10F2A06D9022901D1032A02D903291FD1F2B9104B1D68A86895F87360032404FA06F795F8703095F873
:40240000726003FA06F63E4395F87170B940BC40214031431A4041EA020343F00043C0F80034AB68D3F80034F0BD7047F8A9020870B582B00C46054618B949215448FFF74A
:402440004DFC1CB94A215248FFF748FC002D00F09A80002C00F099802378012B03D958214B48FFF73BFC636833B1B3F1807F03D059214748FFF732FC237A042B03D95A2142
:402480004348FFF72BFC638963B1B3F5807F09D0B3F5007F06D0B3F5407F03D05B213C48FFF71CFCE3687BB1B3F5800F0CD0B3F5400F09D0B3F1006F06D0B3F1086F03D07E
:4024C0005C213348FFF70AFC237C012B03D95D212F48FFF703FC636933B1B3F1804F03D05E212B48FFF7FAFBA3693F2B03D95F212748FFF7F3FBA36903F03F0263891343DD
:40250000217A8A1ED2B2022A01D843F08053042901D143F000536268134362691A43E66816432378012B02D10023012201E001230022217C012902D142F4807201E043F474
:40254000807394F82410A9620121A962C5F8B020C5F8B430E369C3F30B03C5F80031236AC3F30B03C5F8043194F8253043B1E36AA26A94F82610207A246B0094FFF772FDEF
:402580002E60002002E0034800E0024802B070BDA8450810010066002DE9F8430E46074618B93A217548FFF799FB1EB93B217348FFF794FB002F00F0DA80002E00F0DA8002
:4025C00032686F4B13401BB14A216C48FFF786FB72686C4B13401BB14B216848FFF77EFBB36813F0FC2F03D04C216448FFF776FBF36813F0FC2F03D04D216048FFF76EFB2A
:40260000337D032B03D94E215C48FFF767FBB369B3F5803F03D34F215848FFF75FFBF36D072B03D950215548FFF758FB336EB3F5803F03D351215148FFF750FB736EB3F544
:40264000803F03D352214D48FFF748FB736843F000437B60B3683B61F3687B613369BB61337D9B07FB61B3693B62336803F46068736803F00409002435E02546A31D06EBC1
:4026800083035A68404B13401BB163213B48FFF725FBAB1D06EB8303596805F1200247F822105B6813F0012F0BD1B8F5606F08D1B9F1000F05D04FF47842344B23F8152001
:4026C00003E00022314B23F81520726F02F11C7303F58033520093FBF2F31BB22C4A42F825300134E4B20F2CC7D9F36DC7F81832F36DC7F81032336EC7F82832336EC7F8DA
:402700002032736EC7F83832736EC7F8303296F87030DBB1B36EB3F1804F03D382211748FFF7DCFAF36E23F44F0323F0FF031BB183211248FFF7D2FA6FF04043C7F8043306
:40274000B36EC7F80033F36EC7F84433D7F8003F3F2B02D0D7F8003F13B90B23C7F8003F336843F400133B600020BDE8F8830948BDE8F8830748BDE8F88300BFE8450810BB
:402780000811DF0001FE302088CA887EFCA902081CAA02080100060038B50D46044618B9B5211748FFF79AFA2CB30023236063604FF0031222616261A361E361236206E045
:4027C00003F12002002144F822100133DBB20F2BF6D90023C4F81832C4F82832C4F838325DB16FF04043C4F804330020C4F84003C4F8440338BD034838BD002038BD00BFF7
:40280000E84508100100060008B50368002B0ADBD0F8A032002BFBDB036843F0004303600220FFF74FFA08BD38B505460C46012904D940F271110648FFF750FA012C04D13A
:402840006B6843F480336B6038BD01236B6238BDE845081038B505460C460F2904D940F27B210648FFF73AFA0F2C04D8603455F8240080B200E0002000B238BDE845081091
:40288000002867D038B50546002965D00B7A1BB10B88B3FA83F35B090C461BB131212F48FFF71CFA637A1BB16388B3FA83F35B091BB132212948FFF711FAA3791F2B03D9D7
:4028C00033212648FFF70AFA2379032B03D934212248FFF703FA6379032B03D935211F48FFF7FCF9E379032B03D936211B48FFF7F5F96288238843EA0243EB60A3791B06A3
:4029000003F0F851E279130403F480330B43227A920002F004021343627A920202F480621343E27A12B14FF4006200E0002213436279120202F440721343A27A0AB10822CD
:4029400000E000221343227902F0030213432B61002038BD02487047014838BD244608100100D600002800F0248138B50546002900F021810C460B78032B03D957219148FE
:40298000FFF7ACF96378032B03D958218D48FFF7A5F9A378032B03D959218A48FFF79EF92379032B03D95A218648FFF797F9A379012B03D95B218348FFF790F9E379012BD0
:4029C00003D95C217F48FFF789F9E378012B03D95D217C48FFF782F96379022B03D95E217848FFF77BF9237A032B03D95F217548FFF774F9237803F003016278930003F062
:402A00000C030B43A278120102F03002134322799201D2B21343A279920602F080621343E279D20602F000621343E278120602F0807213436279120702F040521343227ABA
:402A400043EA82732B60E3686B602369AB60237A032B00F2B280DFE803F002063388E36AEB60002038BD636903F50063B3F5805F03D378215348FFF731F9A36903F50063A4
:402A8000B3F5805F03D379214E48FFF727F9E369013BFF2B03D97A214A48FFF71FF96369C3F30B02A369484901EA03331A43E369013B42EA0363EB60E36A2B61002038BDAD
:402AC000636903F50063B3F5805F03D387213D48FFF704F9A36903F50063B3F5805F03D388213848FFF7FAF8E369013BFF2B03D989213448FFF7F2F8236A03F50063B3F539
:402B0000805F03D38A212F48FFF7E8F8636A03F50063B3F5805F03D38B212A48FFF7DEF8A36A013BFF2B03D98C212648FFF7D6F86269C2F30B01A269234B03EA02320A43D8
:402B4000E169013942EA0162EA60226AC2F30B02616A03EA01331343A26A013A43EA02632B61E36A6B61002038BD184B1B6893F82A30012B23D9636903F50063B3F5805F34
:402B800003D3A1210F48FFF7A9F8E369013BFF2B03D9A2210B48FFF7A1F86369C3F30B03E269013A43EA0263EB60E36A2B61002038BD07487047064838BD054838BD0448A4
:402BC00038BD00BF6446081000F0FF00F8A9020801004E00002860D0F8B50346002A5ED0106800285DD03148006890F83300884259D91E4614460D469368032B03D9EF2145
:402C00002B48FFF76BF82768284B1B6893F833309D4204D340F2E1512648FFF75FF8234B1A68B2F85A309919B2F85C3005FB0313DF60B2F85A10B2F85C30314405FB03114C
:402C40008B681B0C1B048B60B2F85A301E44B2F85C1005FB01F123792BB192F85F70012303FA07F700E00027A06892F85E50A8400322AA4000EA02033B43227B12B14FF058
:402C8000004200E000221343627B0AB1042200E00022134373500020F8BD074870470648F8BD0548F8BD0448F8BD00BFF8A9020864460810A046081001004E0038B5044610
:402CC0001D4B1A68916892F8703003F0010343F08043C1F800340369FF2B0AD89168B2F874200A44516821F47F411B029BB20B435360114B1A68906892F87310032303FAF1
:402D000001F592F8703092F8721003FA01F1294303F001030B4343F00043C0F800349368D3F80034054D00212846FFF735FDA1682846FFF731FC38BDF8A9020800001D41CA
:402D400008B5074B5B6813F4802F04D001210448FFF76AFD08BD00210148FFF765FD08BD00001D41074BB3F90030002B08DB590903F01F03012202FA03F3034A42F82130E2
:402D8000704700BFA441081000E100E008B5084B1B7963B907490848FEF742FF044B5B792BB90122024B5A710448FFF787FF08BD6C4B0208ED2D0810A44108101847081013
:402DC00008B5084B1B7913F0010F06D1FFF7DEFF044A137943F0010313710348FFF714FD08BD00BF6C4B020800001D4110B50A4BD3F81042FDF700FB072C04D940F23161EE
:402E00000648FEF76BFF044BC3F81042D3F81022D3F8103210BD00BF00001D41DC46081010B50E4B1B786BB90D4C21460D48FFF7FFFA04F1340201210B48FFF74FF8012282
:402E4000064B1A70074A136843F000431360A2F58022136843F00043136010BD744B0208A4470810000014410000104108B50A4B1B7833B909490A48FFF702FD0122064B48
:402E80001A70074B002018625A6942F001025A61FEF718FF08BD00BF7C4B0208E84708100002264010B584B00C4C0D492046FFF759FD009400218DF8041002918DF80C10FE
:402EC0008DF80D10074C6A462046FFF783FE236843F00043236004B010BD00BF804B0208404808100000284038B505460C46114B1B7E23B9FFF7D6FF01220E4B1A760D4B25
:402F00005D609C600C4B1B6893F8333023B940F2FA510A48FEF7E2FE074B1B68B3F85A3003F1804303F520131A6842F000421A6038BD00BF804B0208F8A902087048081030
:402F400002440346934202D003F8011BFAE770470EB400B59CB04FF402711DABADF81410029006906FF000410A48049107914FF6FF7153F8042BADF816100068019302A97A
:402F800000F076F8029B00221A701CB05DF804EB03B070471043020810B5034642B111F8014B03F8014B013A002CF7D11A4400E010BD934202D003F8014BFAE710BD2DE90A
:402FC000F0478E689E4282460C46914698463ED88A8912F4906F3AD0256809696F1A6569022305EB450595FBF3F57B1C43449D4238BF1D4653050FD5294600F08DFB0646CA
:4030000098B13A46216900F013FBA38923F4906343F08003A38113E02A4600F0DBFB064670B92169504600F029FB0C23CAF80030A38943F04003A3814FF0FF30BDE8F087EC
:40304000266165613E44ED1B2660A5604646464528BF464632464946206800F0F4FAA3689B1BA36023681E4426600020BDE8F0872DE9F04F9DB0804603938B891C060D46FD
:4030800016460DD50B695BB9402100F045FB2860286118B90C23C8F80030CDE040236B610023099320238DF82930DFF89CB130238DF82A3037463C4614F8013B1BB9B7EBE9
:4030C000060910D003E0252BF9D02746F3E74B46324629464046FFF772FF013000F0A780099B4B4409933B78002B00F0A08000234FF0FF3204930793059206938DF8533038
:403100001A930126052221784E4800F041FA671C049B38B14B4A801A06FA00F0184304903C46EFE7D90644BF20228DF853201A0744BF2B228DF8532022782A2A03D0079AE2
:4031400000210A200BE0039A111D12680391002A10DA524243F00200079204900BE0274601343B78303B092B03D800FB02320121F5E701B107923B782E2B1ED17B782A2BC1
:403180000AD1039B1A1D1B680392002BB8BF4FF0FF330237059310E000230593781C19460A24074601303A78303A092A03D804FB01210123F5E703B1059103223978224844
:4031C00000F0E6F940B14023CBEB000003FA00F0049B18430490013739781C488DF8281006227E1C00F0D4F988B1194B33B9039B073323F007030833039314E003AB00936E
:403200002A46144B04A94046AFF3008007E003AB00932A460F4B04A9404600F093F8B0F1FF3F824603D0099B5344099342E7AB895B0601D4099801E04FF0FF301DB0BDE884
:40324000F08F00BFFA480810004908100449081000000000BF2F08102DE9F04791461F460A698B68DDF820809342B8BF1346C9F8003091F8432006460C4612B10133C9F8AE
:4032800000302368990642BFD9F800300233C9F80030256815F0060510D104F1190A07E00123524639463046C04701301AD00135E368D9F800209B1A9D42F1DB94F843306B
:4032C0002268003318BF012392060FD5E1185A1C302081F84300224494F8451082F84310023303E04FF0FF30BDE8F08704F1430239463046C0470130F4D02268D9F8005093
:40330000E36802F00602042A08BF5D1B2269A3680CBF25EAE57500259342C4BF9B1AED184FF000091A344D4509D00123224639463046C0470130D5D009F10109F3E700207D
:40334000BDE8F0872DE9F04317460A7E85B06E2A984606460C460C9B01F1430E00F0AE8011D8632A22D009D8002A00F0BB80582A40F0CA8081F84520834955E0642A1ED0BD
:40338000692A1CD0C0E0732A00F0B08009D86F2A2ED0702A40F0B8800A6842F020020A603EE0752A24D0782A3AD0ADE01A6801F14205111D1960136884F84230A8E02168C1
:4033C0001A6811F0800F02D0111D196008E011F0400F02F10401196002D0B2F9003000E01368002B3CDA2D225B4284F8432037E021681A6811F0800F02D0111D196007E073
:4034000011F0400F02F10401196001D0138800E01368227E5C496F2A14BF0A2208221BE078225A4984F845202268186812F0800F00F104051D6003D1550601D5038800E062
:403440000368D00744BF42F0200222601BB9226822F0200222601022002084F8430001E049490A226568A560002D08DB206820F0040020602BB9002D7DD175460CE0002B3E
:4034800079D07546B3FBF2F002FB1033CB5C05F8013D03460028F5D1082A0BD12368DA0708D5236962689A42DEBF302305F8013C05F1FF35C5EB0E0323612EE008681A687D
:4034C000496910F0800F03D0101D1860136808E010F0400F02F104001860136801D0198000E0196000232361754616E01A68111D1960156862680021284600F049F808B173
:40350000401B6060636804E004F1420584F8422001232361002384F84330CDF800803B4603AA21463046FFF797FE013002D14FF0FF3026E023692A4639463046C047013071
:40354000F5D023689B0710D5002504F1190907E001234A4639463046C0470130E7D00135E368039A9B1A9D42F2DBE068039B9842B8BF184605E00B7884F8423004F1420513
:403580008AE705B0BDE8F0830B4908101C49081001F0FF01102A2BDB10F0070F08D010F8013B013A8B422DD010F0070F42B3F6D1F0B441EA012141EA014122F007047FF0C0
:4035C00000070023F0E80256083C85EA010586EA010685FA47F5A3FA87F586FA47F6A5FA87F68EB9EED1F0BC01F0FF0102F0070232B110F8013B013A83EA010313B1F8D196
:403600000020704701387047002D06BF35460338073815F0010F07D1013015F4807F02BF013015F4C03F0130F0BC0138704700BF10B5431E0A44914204D011F8014B03F8C5
:40364000014FF8E710BD884210B501EB020301D8421E0BE09842FBD28118D21AD34204D013F8014D01F8014DF8E710BD994204D011F8014B02F8014FF8E710BD38B5054617
:40368000002946D051F8043C0C1F002BB8BFE41800F0D6F81F4A1368114613B96360146032E0A3420ED92268A018834204BF18685B68636004BF121822600C6024E0A2420C
:4036C00003D813465A68002AF9D118681918A1420BD12168014458188242196014D1106852685A60014419600EE002D90C232B600AE021686018824204BF1068526862607D
:4037000004BF091821605C602846BDE8384000F098B838BDA04B020870B5CD1C25F0030508350C2D38BF0C25002D064601DBA94202D90C23336046E000F082F8234B1C688B
:403740001A462146A1B10B685B1B0ED40B2B03D90B60CC18CD501EE08C420DBF63684B686360136018BF0C4615E00C464968E9E7174C23681BB9304600F052F82060294649
:40378000304600F04DF8431C18D0C41C24F00304A0420DD12560304600F053F804F10B00231D20F00700C31A0ED05A42E25070BD211A304600F034F80130EBD10C2333609D
:4037C000304600F03EF8002070BD00BFA04B02089C4B0208F8B5074615460E4621B91146BDE8F840FFF798BF1AB9FFF747FF2846F8BD00F027F885420ED929463846FFF765
:403800008BFF044650B131462A46FFF711FF31463846FFF733FF01E03046F8BD2046F8BD38B5064C002305460846236000F014F8431C02D1236803B12B6038BD5CAA020807
:403840007047704751F8040C0028BEBF091851F8043CC01804387047044A05491368002B08BF0B461844106018467047A44B020860AA0208F8B500BFF8BC08BC9E467047A0
:40388000F8B500BFF8BC08BC9E46704747656E6572617465645F536F757263655C50536F43362F4144432E680000000044410000030000000100000001000000000000002C
:4038C00005036000040000000100000000000000010000000604600008000000E44A0208AD0608106661756C7420636F756E743A2053522D25692C2057522D25690D0A00FF
:403900002534642C2534642C2533642C2533642C2533642C0925640D0A0000007265663A206D617857523D25642C206D696E57523D25642C206D6178736C65773D25642CCA
:40394000206D696E736C65773D25640D0A00000047656E6572617465645F536F757263655C50536F43365C70646C5C647269766572732F7065726970686572616C2F7363AE
:40398000622F63795F7363625F756172742E6800647420092041444320092044414320092064656C746157522009206661756C740D0A00006661756C7420636F756E743A41
:4039C0002053522D256920092057522D256920200D0A0000100000002000000031000000410000005200000062000000720000008300000093000000A3000000B40000000E
:403A0000C4000000D5000000E5000000F500000006010000160100002701000037010000470100005801000068010000790100008901000099010000AA010000BA01000087
:403A4000CB010000DB010000EB010000FC0100000C0200001D0200002D0200003D0200004E0200005E0200006F0200007F02000090020000A0020000B0020000C1020000CF
:403A8000D1020000E2020000F202000002030000130300002303000034030000440300005403000065030000750300008603000096030000A6030000B7030000C703000016
:403AC000D8030000E8030000F803000009040000190400002A0400003A0400004A0400005B0400006B0400007C0400008C0400009C040000AD040000BD040000CE0400005F
:403B0000DE040000EE040000FF0400000F0500002005000030050000400500005105000061050000720500008205000092050000A3050000B3050000C4050000D4050000A8
:403B4000E4050000F505000005060000160600002606000036060000470600005706000068060000780600008806000099060000A9060000BA060000CA060000DA060000F1
:403B8000EB060000FB0600000C0700001C0700002C0700003D0700004D0700005E0700006E0700007E0700008F0700009F070000B0070000C0070000D0070000E10700003A
:403BC000F107000002080000120800002208000033080000430800005408000064080000740800008508000095080000A6080000B6080000C6080000D7080000E708000083
:403C0000F8080000080900001809000029090000390900004A0900005A0900006A0900007B0900008B0900009B090000AC090000BC090000CD090000DD090000ED090000CD
:403C4000FE0900000E0A00001F0A00002F0A00003F0A0000500A0000600A0000710A0000810A0000910A0000A20A0000B20A0000C30A0000D30A0000E30A0000F40A000018
:403C8000040B0000150B0000250B0000350B0000460B0000560B0000670B0000770B0000870B0000980B0000A80B0000B90B0000C90B0000D90B0000EA0B0000FA0B000061
:403CC0000B0C00001B0C00002B0C00003C0C00004C0C00005D0C00006D0C00007D0C00008E0C00009E0C0000AF0C0000BF0C0000CF0C0000E00C0000F00C0000010D0000A9
:403D0000110D0000210D0000320D0000420D0000530D0000630D0000730D0000840D0000940D0000A50D0000B50D0000C50D0000D60D0000E60D0000F70D0000070E0000F2
:403D4000170E0000280E0000380E0000490E0000590E0000690E00007A0E00008A0E00009B0E0000AB0E0000BB0E0000CC0E0000DC0E0000ED0E0000FD0E00000D0F00003C
:403D80001E0F00002E0F00003F0F00004F0F00005F0F0000700F0000800F0000910F0000A10F0000B10F0000C20F0000D20F0000E30F0000F30F0000FF0F0000F30F0000AB
:403DC000E30F0000D20F0000C20F0000B10F0000A10F0000910F0000800F0000700F00005F0F00004F0F00003F0F00002E0F00001E0F00000D0F0000FD0E0000ED0E00005B
:403E0000DC0E0000CC0E0000BB0E0000AB0E00009B0E00008A0E00007A0E0000690E0000590E0000490E0000380E0000280E0000170E0000070E0000F70D0000E60D000091
:403E4000D60D0000C50D0000B50D0000A50D0000940D0000840D0000730D0000630D0000530D0000420D0000320D0000210D0000110D0000010D0000F00C0000E00C0000C7
:403E8000CF0C0000BF0C0000AF0C00009E0C00008E0C00007D0C00006D0C00005D0C00004C0C00003C0C00002B0C00001B0C00000B0C0000FA0B0000EA0B0000D90B0000FF
:403EC000C90B0000B90B0000A80B0000980B0000870B0000770B0000670B0000560B0000460B0000350B0000250B0000150B0000040B0000F40A0000E30A0000D30A000035
:403F0000C30A0000B20A0000A20A0000910A0000810A0000710A0000600A0000500A00003F0A00002F0A00001F0A00000E0A0000FE090000ED090000DD090000CD0900006B
:403F4000BC090000AC0900009B0900008B0900007B0900006A0900005A0900004A09000039090000290900001809000008090000F8080000E7080000D7080000C6080000A0
:403F8000B6080000A608000095080000850800007408000064080000540800004308000033080000220800001208000002080000F1070000E1070000D0070000C0070000D5
:403FC000B00700009F0700008F0700007E0700006E0700005E0700004D0700003D0700002C0700001C0700000C070000FB060000EB060000DA060000CA060000BA0600000C
:40400000A906000099060000880600007806000068060000570600004706000036060000260600001606000005060000F5050000E4050000D4050000C4050000B305000042
:40404000A305000092050000820500007205000061050000510500004005000030050000200500000F050000FF040000EE040000DE040000CE040000BD040000AD04000079
:404080009C0400008C0400007C0400006B0400005B0400004A0400003A0400002A0400001904000009040000F8030000E8030000D8030000C7030000B7030000A6030000B0
:4040C00096030000860300007503000065030000540300004403000034030000230300001303000002030000F2020000E2020000D1020000C1020000B0020000A0020000E6
:404100008F0200007F0200006F0200005E0200004E0200003D0200002D0200001D0200000C020000FC010000EB010000DB010000CB010000BA010000AA0100009901000020
:40414000890100007901000068010000580100004701000037010000270100001601000006010000F5000000E5000000D5000000C4000000B4000000A30000009300000056
:404180008300000072000000620000005100000041000000310000002000000010000000000000008A000000010000002E00000007000000000000000C00000008000000E1
:4041C00000020000000000000000000000000000000000000000000000000000000000000B0000000000000000000000000000000000000047656E6572617465645F536F02
:40420000757263655C50536F43365C70646C5C647269766572732F7065726970686572616C2F6970632F63795F6970635F6472762E68000047656E6572617465645F536F94
:40424000757263655C50536F43365C70646C5C647269766572735C7065726970686572616C5C6970635C63795F6970635F6472762E68000047656E6572617465645F536FCD
:40428000757263655C50536F43365C70646C5C647269766572735C7065726970686572616C5C6970635C63795F6970635F6472762E63000047656E6572617465645F536F92
:4042C000757263655C50536F43365C70646C5C647269766572735C7065726970686572616C5C6970635C63795F6970635F706970652E630047656E6572617465645F536FF0
:40430000757263655C50536F43365C70646C5C647269766572735C7065726970686572616C5C7363625C63795F7363625F756172742E680047656E6572617465645F536FA4
:40434000757263655C50536F43365C70646C5C647269766572735C7065726970686572616C5C7363625C63795F7363625F636F6D6D6F6E2E6800000047656E65726174651C
:40438000645F536F757263655C50536F43365C70646C5C647269766572735C7065726970686572616C5C7363625C63795F7363625F756172742E630047656E657261746529
:4043C000645F536F757263655C50536F43365C70646C5C647269766572735C7065726970686572616C5C737973696E745C63795F737973696E742E630000000000002040EB
